:100000000C9422010C944E010C944E010C944E0160
:100010000C944E010C944E010C944E010C944E0124
:100020000C944E010C944E010C944E010C944E0114
:100030000C944E010C944E010C944E010C944E0104
:100040000C944E010C944E010C944E010C944E01F4
:100050000C944E010C944E010C944E010C945918C2
:100060000C944E010C94DE1A0C944E010C944E012B
:100070000C944E010C944E010C944E010C944E01C4
:100080000C944E010C944E010C944E010C944E01B4
:100090000C941F1B0C944E010C944E010C944E01B9
:1000A0000C944E010C944E010C944E010C944E0194
:1000B0000C944E010C944E010C944E010C944E0184
:1000C0000C944E010C944E010C944E010C94601B48
:1000D0000C944E010C944E010C94A11B0C944E01F7
:1000E0000C944E0100002100240027002A002D005E
:1000F0003000330001010000040107010A01000083
:100100002200250028002B002E00310034000201BF
:100110000000050108010B0100002000230026005B
:1001200029002C002F00320000010000030106010D
:10013000090105050505070508080808020202026D
:100140000A0A080804040404010101010101010173
:100150000303030303030303040707070C0C0C0C3E
:100160000C0C0C0C02020202060606060606060627
:100170000B0B0B0B0B0B0B0B0102102020080810B4
:100180002040102040800201020108040201010207
:1001900004081020408080402010080402018004E0
:1001A000020180402010080402010804020101023B
:1001B0000408102040800102040810204080000044
:1001C000090A02080B0C0D070603040100000000D9
:1001D000000000000000000000000000000000001F
:1001E00000000000000000000000100F0E000000E2
:1001F00000000000000000000000000000000000FF
:1002000000000000494E46494E4954594E414ECDDA
:10021000CCCC3D0AD7233C17B7D13877CC2B3295BD
:1002200095E6241FB14F0A000020410000C842009B
:10023000401C4620BCBE4CCA1B0E5AAEC59D740065
:100240003C02501D11241FBECFEFD1E2DEBFCDBF57
:1002500000E00CBF15E0A0E0B2E0E8E3FCE400E061
:100260000BBF02C007900D92AC33B107D9F71BE06A
:10027000ACE3B5E001C01D92AE3AB107E1F712E080
:10028000C4E4D2E004C02297FE010E943123C034AE
:10029000D107C9F70E94201E0C941A260C94000066
:1002A000FC018130910579F0823091051CF40097B2
:1002B00041F012C08230910541F08330910561F424
:1002C0000AC0889A09C08E9A07C080910B01886085
:1002D00080930B0101C0149AEE0FFF1FEE0FFF1F5A
:1002E000E253FA4F80819181A281B3810196A11DD1
:1002F000B11D80839183A283B38388988E98809167
:100300000B01877F80930B01149808950F931F931F
:10031000CF93DF938C01EB012130310519F02FEFE2
:100320003FEF4BC081E030C0DF01AA0FBB1FAA0F17
:10033000BB1FAC0FBD1F12966D917C911397601778
:1003400071070CF53197EE0FFF1FEE0FFF1FEC0F3B
:10035000FD1F228133810190F081E02D021B130BE0
:100360008D919C918E1B9F0B621B730B9C01029FB6
:10037000C001039F900D129F900D11240E94CB226B
:100380006E0F7F1F16C08F5FE82FF0E0E417F507B0
:100390005CF2E417F50719F060E070E00AC0415024
:1003A0005040440F551F440F551FC40FD51F68817F
:1003B00079812FEF33E0261B370BC901DF91CF91F5
:1003C0001F910F910895CF93DF93EB0121303105F9
:1003D00019F06FEF7FEF4CC02FEF33E0281B390B84
:1003E00081E031C0DF01AA0FBB1FAA0FBB1FAC0FFA
:1003F000BD1F6D917C911197261737071CF531971A
:10040000EE0FFF1FEE0FFF1FEC0FFD1F408151810C
:100410000280F381E02D241B350B12968D919C9167
:1004200013978E1B9F0B641B750BAC01249FC0019F
:10043000259F900D349F900D11240E94CB226E0FAA
:100440007F1F16C08F5FE82FF0E0E417F50754F226
:10045000E417F50719F060E070E00AC04150504021
:10046000440F551F440F551FC40FD51F6A817B8150
:10047000CB01DF91CF9108950F931F9306E314E012
:1004800085E090E0B8014DE350E021E030E00E94CB
:100490008601909338098093370983E191E0B80190
:1004A0004DE350E021E030E00E94860190933A094C
:1004B000809339091F910F9108950E94A1182091EE
:1004C0005405309155054091560550915705621BD2
:1004D000730B840B950B645F71408040904008F46F
:1004E00071C00E94A11860935405709355058093C4
:1004F0005605909357058DE00E94EE192FEF33E0DB
:10050000281B390B30932E0920932D098091370930
:10051000909138098217930724F010922C091092B9
:100520002B098091390990913A092817390724F04D
:1005300010922C0910922B0980912B0990912C0973
:10054000281739071CF02C982F9802C02C9A2F9A44
:100550000E94A118209158053091590540915A05E3
:1005600050915B05621B730B840B950B68587341AC
:100570008040904038F10E94A11860935805709314
:10058000590580935A0590935B058EE00E94EE1901
:100590002FEF33E0281B390B3093320920933109B8
:1005A00080912F09909130092817390734F08091F4
:1005B00002018F7D80930201089580910201806283
:1005C0008093020108952F923F924F925F926F9213
:1005D0007F928F929F92AF92BF92CF92DF92EF92D3
:1005E000FF920F931F93DF93CF93CDB7DEB7C15721
:1005F000D0400FB6F894DEBF0FBECDBFAC969FAF14
:100600008EAFAC976091AE057091AF058091B0054B
:100610009091B1052091BE053091BF054091C00574
:100620005091C1050E94EE21181614F4899A01C058
:1006300089986091B2057091B3058091B40590914D
:10064000B5052091C2053091C3054091C405509174
:10065000C5050E94EE21181614F48F9A01C08F98D8
:100660006091B6057091B7058091B8059091B90574
:100670002091C6053091C7054091C8055091C90524
:100680000E94EE21181624F480910B018D7F03C087
:1006900080910B01826080930B016091BA0570918B
:1006A000BB058091BC059091BD052091CA05309194
:1006B000CB054091CC055091CD050E94EE21181636
:1006C00014F4169A01C0169880914005882359F4B5
:1006D000659B09C0AC96AEADBFADAC971D921D92A7
:1006E0001D921C92139780914105882361F480919B
:1006F000030181FF08C0AC96EEADFFADAC9714824C
:1007000015821682178280914205882361F44B9BE3
:100710000AC0AC96AEADBFADAC9718961D921D92B7
:100720001D921C921B97AC96AEADBFADAC970D91D0
:100730001D912D913C91A4960CAF1DAF2EAF3FAFF4
:10074000A497011511052105310509F05F98AC96B4
:10075000EEADFFADAC973496FAAFE9AFAC96AEAD67
:10076000BFADAC9714960D911D912D913C911797AB
:10077000A8960CAF1DAF2EAF3FAFA897011511057E
:100780002105310509F08A98AC96EEADFFADAC9726
:100790003896F8AFEFABAC96AEADBFADAC97189650
:1007A0000D911D912D913C911B97A0960CAF1DAF03
:1007B0002EAF3FAFA097011511052105310529F096
:1007C000809108018E7F80930801AC96EEADFFAD5D
:1007D000AC973C96AA96FFAFEEAFAA97AC96AEAD9B
:1007E000BFADAC971C964D915D916D917C911F971B
:1007F000411551056105710509F01298FE01319608
:1008000080E1DF011D928A95E9F7A4960CAD1DAD3C
:100810002EAD3FADA49709831A832B833C83A89602
:100820008CAD9DADAEADBFADA8978D839E83AF83DC
:10083000B887A0960CAD1DAD2EAD3FADA097098732
:100840001A872B873C874D875E876F87788BA496A6
:100850000CAD1DAD2EAD3FADA497081719072A07A3
:100860003B0720F5A0960CAD1DAD2EAD3FADA0977A
:10087000081719072A073B0740F4481759076A0762
:100880007B0718F421E030E04FC0A4968CAD9DADFD
:10089000AEADBFADA497A8960CAD1DAD2EAD3FADCE
:1008A000A89780179107A207B307D8F0A4968CAD3C
:1008B0009DADAEADBFADA497A0960CAD1DAD2EAD58
:1008C0003FADA097081719072A073B0750F44817B0
:1008D00059076A077B0728F462961FAE1EAE62971F
:1008E0002EC0A0968CAD9DADAEADBFADA097A49629
:1008F0000CAD1DAD2EAD3FADA49780179107A2079B
:10090000B307B8F0A8960CAD1DAD2EAD3FADA897BE
:1009100080179107A207B30760F0481759076A07C5
:100920007B0738F422E030E062963FAF2EAF62974B
:1009300006C083E090E062969FAF8EAF62976296AA
:10094000EEADFFAD6297EE0FFF1FEE0FFF1FEC0F36
:10095000FD1F01811281238134810BAB1CAB2DABB8
:100960003EAB36952795179507956C960CAF1DAF46
:100970002EAF3FAF6C976996EFAC69976A96FFAC64
:100980006A976B960FAD6B976C961FAD6C9720E0D6
:1009900030E080E090E0DE0151966296EEADFFAD72
:1009A00062972E173F0739F0FD01E80FF91FE0822B
:1009B000F18202831383FC01E253FA4F1082118209
:1009C000128213822F5F3F4F04962430310529F79E
:1009D0006296EEADFFAD6297EE0FFF1FEE0FFF1FA9
:1009E000E252FA4F008111812281338168960CAF67
:1009F0001DAF2EAF3FAF68970093AA051093AB05CC
:100A00002093AC053093AD052C961FAE2C97411565
:100A100051056105710521F011E02C961FAF2C974F
:100A20006296EEADFFAD6297EE0FFF1FEE0FFF1F58
:100A3000E459FA4F708061802281AD962FAFAD9757
:100A40003381AE963FAFAE9770929C0560929D0544
:100A500020939E0530939F056296CEACDFAC6297E3
:100A6000272D362DAD964FADAD97AE965FADAE97B7
:100A7000C901DA017C018D01AA24BB2488249924B0
:100A8000AC96EEADFFADAC97E80DF91D208131813C
:100A900042815381211531054105510551F162967D
:100AA0006EAD7FAD6297A616B70619F1F401E45951
:100AB000FA4F2080318042805380C201B1010E94F0
:100AC000AC22F601EE0FFF1FEE0FFF1FAC96AEAD8E
:100AD000BFADAC97EA0FFB1F20813181428153816A
:100AE0000E94DE22E216F3060407150710F46501E2
:100AF00002C0170128010894A11CB11CE4E0F0E039
:100B00008E0E9F1EF4E0AF16B10419F08201710140
:100B1000B7CF60E071EE85EF95E0272D362DAD96CD
:100B20004FADAD97AE965FADAE970E94DE22C90184
:100B3000DA0127968CAF9DAFAEAFBFAF2797860186
:100B4000000F111F000F111FAC962EAD3FADAC97DB
:100B5000200F311F3AAB29AB1EAE1DAE1CAE1BAE33
:100B6000AC96EEADFFADAC974BAD5CADE40FF51FB1
:100B7000608071808280938061147104810491048B
:100B800009F44FC0C201B1010E943C215B016C011C
:100B9000A9A9BAA96D917D918D919C910E943C214A
:100BA0007B018C01C401B3010E943C219B01AC017B
:100BB000C801B7010E94A3209B01AC01C601B50189
:100BC0000E94F2210E9410219B01AC01E1E2F0E0C1
:100BD000EC0FFD1F0BAD1CADE00FF11F60837183A7
:100BE000828393836DAD7EAD62968EAD9FAD62972D
:100BF00068177907B1F420939C0530939D054093C5
:100C00009E0550939F0560E071EE85EF95E00E9490
:100C1000DE22C901DA0127968CAF9DAFAEAFBFAF20
:100C20002797ADADBEAD1196BEAFADAFEBADFCAD90
:100C30003496FCAFEBAF149709F092CFBEED4B2E7C
:100C4000B5E05B2EA1E26A2E712C6C0E7D1EE19642
:100C50001FAEE197E2961FAEE29722243324CC2404
:100C6000DD24AC96EEADFFADAC97EC0DFD1D8081A3
:100C70009181A281B3810097A105B10509F477C0E4
:100C80002C96FFAD2C97FF2361F1D2016D917D91E0
:100C90008D919C910E943E219B01AC0160E27CEB16
:100CA0008EEB9CE40E94A3207B018C01F301608108
:100CB0007181828193810E943C219B01AC0160E2A1
:100CC0007CEB8EEB9CEC0E94A3209B01AC01C80145
:100CD000B7010E943B207B018C01F601E458FA4FDA
:100CE0002BC0D2016D917D918D919C910E943E21EE
:100CF0009B01AC0160E27CEB8EEB9CE40E94A320A4
:100D00007B018C01F30160817181828193810E945A
:100D10003C219B01AC0160E27CEB8EEB9CEC0E94E1
:100D2000A3209B01AC01C801B7010E943B207B01BD
:100D30008C01F601E457FA4F6081718182819381C1
:100D40000E943C219B01AC01C801B7010E94A32075
:100D50004B015C01E1966FADE197E2967FADE297C2
:100D6000C101A50194010E94EE2118164CF4E196F0
:100D70008FADE197E2969FADE297D1014C015D0105
:100D800004E010E0C00ED11E400E511E600E711E18
:100D900010E1C116D10451F0D501C401E1968FAE26
:100DA000E197E2969FAFE2971D015BCF62960EAD91
:100DB0001FAD6297000F111F000F111FF801E252C3
:100DC000FA4F60817181828193810E943E219B0153
:100DD000AC0160E27CEB8EEB9CE40E94A3206B01F3
:100DE0007C010C0F1D1FD80191966D917D918D9105
:100DF0009C9194970E943C219B01AC0160E27CEBAA
:100E00008EEB9CEC0E94A3209B01AC01C701B601B4
:100E10000E943B20A50194010E94A3200E94102162
:100E20006093A0057093A1058093A2059093A305FC
:100E30000E943C2120E030E040E05FE30E94F2218C
:100E4000A50194010E94F2217B018C0127966CADD3
:100E50007DAD8EAD9FAD27970E943E219B01AC01D9
:100E6000C801B7010E943B20A50194010E94F22114
:100E70000E940B210E943C212EEA37E441E85FE307
:100E80000E94F2210E9410216093A4057093A50591
:100E90008093A6059093A70581E08093A805809193
:100EA0009C0590919D05A0919E05B0919F05689627
:100EB0000CAD1DAD2EAD3FAD689780179107A20711
:100EC000B30710F41092A8050E94AF1823966CAFD8
:100ED0007DAF8EAF9FAF239724E630E040E050E037
:100EE0000E94AC22609344057093450580934605AB
:100EF00090934705609348057093490580934A0590
:100F000090934B0560934C0570934D0580934E056F
:100F100090934F056093500570935105809352054F
:100F2000909353056091F2057091F3058091F4055B
:100F30009091F50520E030E04AE754E40E94A320B8
:100F400020E030E04AE754E40E94EE2118163CF11C
:100F50002C962FAD2C97222331F12C961FAE2C9777
:100F6000A8964CAD5DAD6EAD7FADA897A0968CAD4B
:100F70009DADAEADBFADA097480F591F6A1F7B1F37
:100F8000A4960CAD1DAD2EAD3FADA497400F511FE3
:100F9000621F731F411551056105710521F011E0B4
:100FA0002C961FAF2C9760E071EE85EF95E0689668
:100FB0002CAD3DAD4EAD5FAD68970E94DE22C901FC
:100FC000DA012B968CAF9DAFAEAFBFAF2B97629679
:100FD0008EAD9FAD6297880F991F880F991FAC96B1
:100FE0002EAD3FADAC97280F391F64963FAF2EAFA3
:100FF00064974BA95CA96DA97EA960964CAF5DAFC3
:101000006EAF7FAF6097222433242101BC016C5B5B
:101010007A4FE0967FAF6EAFE097C3C22C967FAD5C
:101020002C97772311F00E945D028091A8058823F8
:1010300009F423C1211431044104510489F480913D
:101040009C0590919D05A0919E05B0919F05809370
:10105000AA059093AB05A093AC05B093AD051DC157
:101060008091A4059091A505A091A605B091A70532
:1010700082159305A405B50508F488C06091A00504
:101080007091A1058091A2059091A30520E137E21E
:1010900040E050E00E940023122F032FF42EE52E93
:1010A0000E94AF1823962CAD3DAD4EAD5FAD23979A
:1010B000621B730B840B950B24E630E040E050E09C
:1010C0000E94DE22CA01B901212F302F4F2D5E2D43
:1010D0000E94AC229B01AC0127966CAD7DAD8EAD1C
:1010E0009FAD2797260F371F481F591F60E071EEED
:1010F00085EF95E00E940023C901DA018093AA05DB
:101100009093AB05A093AC05B093AD0568960CAD7C
:101110001DAD2EAD3FAD689780179107A207B307AD
:1011200050F41092A9050093AA051093AB052093E3
:10113000AC053093AD056C962CAD3DAD4EAD5FADBD
:101140006C97221633064406550608F4A6C0209272
:10115000A4053092A5054092A6055092A7052091BE
:10116000AA053091AB054091AC055091AD0560E00A
:1011700071EE85EF95E00E94DE22C901DA012B961F
:101180008CAF9DAFAEAFBFAF2B9785C060964CAD17
:101190005DAD6EAD7FAD609784179507A607B70765
:1011A00008F46BC08091A905882359F40E94AF18F8
:1011B00023966CAF7DAF8EAF9FAF239751E05093D6
:1011C000A9056091A0057091A1058091A20590915B
:1011D000A30520E137E240E050E00E940023122FF7
:1011E000032FF42EE52E0E94AF1823962CAD3DADB3
:1011F0004EAD5FAD2397621B730B840B950B24E6FA
:1012000030E040E050E00E94DE22CA01B901212F07
:10121000302F4F2D5E2D0E94AC222B962CAD3DAD74
:101220004EAD5FAD2B97261B370B480B590B60E07B
:1012300071EE85EF95E00E940023C901DA018093E9
:10124000AA059093AB05A093AC05B093AD05209192
:101250009C0530919D0540919E0550919F05281752
:1012600039074A075B07C8F42093AA053093AB05FA
:101270004093AC055093AD0510C068964CAD5DAD84
:101280006EAD7FAD68974093AA055093AB05609310
:10129000AC057093AD051092A9056496EEADFFAD57
:1012A000649780819181A281B3810097A105B105E6
:1012B00009F477C1809140058823C9F4659B17C064
:1012C00062960EAD1FAD6297012B09F497C1AC96E3
:1012D000EEADFFADAC9780819181A281B381009783
:1012E000A105B10521F01082118212821382809132
:1012F00041058823C9F48091030181FF15C06296DE
:10130000EEADFFAD6297319709F478C1E9ADFAAD62
:1013100080819181A281B3810097A105B10521F05F
:101320001082118212821382809142058823B9F4BF
:101330004B9B15C06296EEADFFAD6297329709F4F4
:101340005DC1EFA9F8AD80819181A281B381009741
:10135000A105B10521F010821182128213820E9430
:10136000AF1824E630E040E050E00E94AC22E09666
:10137000EEADFFADE0972081318142815381621B48
:10138000730B840B950B6093FF057093000680939D
:1013900001069093020697FFE2C00E94AF1824E670
:1013A00030E040E050E00E94AC22E096AEADBFAD30
:1013B000E0976D937D938D939C9313978091AA05ED
:1013C0009091AB05A091AC05B091AD05B695A795F0
:1013D000979587958093FF0590930006A09301064B
:1013E000B0930206BCC00197A109B1096496EEADA5
:1013F000FFAD649780839183A283B3838091FF05BF
:1014000090910006A0910106B09102062091AA05D4
:101410003091AB054091AC055091AD05821B930B0B
:10142000A40BB50B8093FF0590930006A0930106D3
:10143000B093020662968EAD9FAD62970E945001F6
:10144000E096EEADFFADE09780819181A281B381FE
:101450002091AA053091AB054091AC055091AD05A6
:10146000820F931FA41FB51F80839183A283B38330
:10147000AC966EAC7FACAC9761E1862E912C8C0E55
:101480009D1E6E010894C11CD11CAA24BB24629627
:101490000EAD1FAD6297A016B106E1F1F301808198
:1014A0009181A281B3810097A105B10599F1D40181
:1014B000ED90FD900D911C91F60180819181A281AA
:1014C000B381E81AF90A0A0B1B0BD401ED92FD92C5
:1014D0000D931C93139717FF1DC0C5010E94500167
:1014E000F30180819181A281B3810197A109B109A2
:1014F00080839183A283B3832BA93CA94DA95EA9C4
:10150000E20EF31E041F151FD401ED92FD920D9300
:101510001C9313970894A11CB11CE4E0F0E06E0E3C
:101520007F1E8E0E9F1ECE0EDF1EF4E0AF16B1049E
:1015300009F0ADCF0894211C311C411C511C609650
:101540000CAD1DAD2EAD3FAD609701501040204059
:10155000304060960CAF1DAF2EAF3FAF609720912B
:10156000FF053091000640910106509102068091DE
:10157000AA059091AB05A091AC05B091AD052817D7
:1015800039074A075B0768F06496EEADFFAD6497D4
:1015900080819181A281B3810097A105B10509F0F5
:1015A00022CFE9ADFAAD80819181A281B381EFA90B
:1015B000F8AD2081318142815381820F931FA41F96
:1015C000B51FAC96EEADFFADAC9720813181428165
:1015D0005381820F931FA41FB51FAA96EEADFFADD6
:1015E000AA972081318142815381820F931FA41FCA
:1015F000B51F0097A105B10509F010CD8091080134
:101600008160809308015EEA652E55E0752E4EEBF1
:10161000C42E45E0D42E3EEC832E35E0932E2DEAE9
:10162000A22E23E0B22ED601ED90FD900D911C91DB
:10163000F3016081718182819381A80197010E94E9
:10164000EE211816DCF4D4016D917D918D919C9161
:101650000E943C21F50120813181428153810E9409
:10166000A3209B01AC01C801B7010E943B20D60119
:101670006D937D938D939C93139719C0F4016081B2
:101680007181828193810E943C21D5012D913D91F0
:101690004D915C910E94A3209B01AC01C801B70150
:1016A0000E943A20F601608371838283938304E071
:1016B00010E0600E711EC00ED11E800E911EA00E95
:1016C000B11E1EEB611615E0710609F0ACCFCF58C4
:1016D000DF4F0FB6F894DEBF0FBECDBFCF91DF91C5
:1016E0001F910F91FF90EF90DF90CF90BF90AF9040
:1016F0009F908F907F906F905F904F903F902F9032
:1017000008952F923F924F925F926F927F928F92A5
:101710009F92AF92BF92CF92DF92EF92FF920F9380
:101720001F93DF93CF93CDB7DEB766970FB6F894CC
:10173000DEBF0FBECDBF00E4E02E05E0F02E00E0DE
:1017400010E0DD24D394F801E255FA4FD801A254F9
:10175000BA4F60817181828193812D913D914D912C
:101760005C910E94EE2188231CF0F701D08202C018
:10177000F70110820C5F1F4F0894E11CF11C00312F
:10178000110509F76091AE057091AF058091B00524
:101790009091B10520E030E048E453E40E94EE214E
:1017A000181664F480E090E0A8E4B3E48093AE05FA
:1017B0009093AF05A093B005B093B1056091B205C9
:1017C0007091B3058091B4059091B50520E030E0AB
:1017D00048E453E40E94EE21181664F480E090E09F
:1017E000A8E4B3E48093B2059093B305A093B40545
:1017F000B093B5056091B6057091B7058091B805B5
:101800009091B90520E030E048EC52E40E94EE21CE
:10181000181664F480E090E0A8ECB2E48093B6057A
:101820009093B705A093B805B093B905AA24BB243B
:10183000F501E255FA4FD501A254BA4F608171818A
:10184000828193812D913D914D915C910E943A202E
:101850006B017C01F501E95FF94F6083718382833D
:10186000938320E030E040E050E00E94EE21181623
:1018700024F0F7FAF094F7F8F0948501045A1A4F1F
:10188000F501E355FC4FC701B6012081318142814A
:1018900053810E94F2210E941021F801608371831C
:1018A0008283938384E090E0A80EB91E90E1A9168C
:1018B000B10409F0BDCF80913304909134040A97AC
:1018C00034F48AE090E09093340480933304A09041
:1018D0000706B0900806C0900906D0900A06C60117
:1018E000B50120E030E040E050E00E94EE21181603
:1018F00054F0C601B50120E030E040E050E00E9425
:101900009F208823BCF560910B0670910C06809196
:101910000D0690910E0620E030E040E050E00E947D
:101920009F20882339F560910F06709110068091F1
:1019300011069091120620E030E040E050E00E9455
:101940009F208823B9F4C601B50120E030E040E0D3
:1019500050E00E94EE21181624F0D7FAD094D7F860
:10196000D094A0920306B0920406C0920506D092CD
:10197000060610C1C601B50120E030E040E050E0AD
:101980000E949F20882309F060C0E0900B06F09031
:101990000C0600910D0610910E06C801B70120E05B
:1019A00030E040E050E00E94EE21181654F0C801EB
:1019B000B70120E030E040E050E00E949F20882303
:1019C000E4F460910F0670911006809111069091D9
:1019D000120620E030E040E050E00E949F20882383
:1019E00061F4C801B70120E030E040E050E00E941F
:1019F000EE2118160CF4C6C0C1C0C801B70120E022
:101A000030E040E050E00E949F208823F1F4E09015
:101A10000F06F09010060091110610911206C801F1
:101A2000B70120E030E040E050E00E94EE211816BF
:101A30000CF4A8C0C801B70120E030E040E050E05D
:101A40000E949F2088230CF499C0C601B50120E0B4
:101A500030E040E050E00E94EE2118163CF1C60153
:101A6000B50120E030E040E050E00E949F2087FD7B
:101A70001DC0E0900B06F0900C0600910D06109131
:101A80000E06C801B70120E030E040E050E00E94BF
:101A9000EE2118165CF0C801B70120E030E040E00C
:101AA00050E00E949F2088230CF04BC0E0900B0672
:101AB000F0900C0600910D0610910E06C601B501BE
:101AC000A60195010E94F2215B016C01C801B701DA
:101AD000A80197010E94F2219B01AC01C601B5014A
:101AE0000E943B200E9459227B018C01A0900F068E
:101AF000B0901006C0901106D0901206C601B50134
:101B000020E030E040E050E00E94EE211816D4F5CD
:101B1000C801B701A80197010E94F2217B018C0145
:101B2000C601B501A60195010E94F2219B01AC01FD
:101B3000C801B7010E943B200E9459227B018C0101
:101B400021C0E0901306F090140600911506109144
:101B50001606C801B70120E030E040E050E00E94E6
:101B6000EE2118167CF0C801B70120E030E040E01B
:101B700050E00E949F2088230CF010C117FB1095A5
:101B800017F91095E0920306F092040600930506FB
:101B9000109306066091330470913404882777FD12
:101BA0008095982F0E943E2120EC31EE44E65CE4C3
:101BB0000E94A3209B01AC01609103067091040672
:101BC00080910506909106060E94A3203B014C01DE
:101BD0001A8A198AE989FA89E45AFA4F808191812F
:101BE000A281B3810097A105B10509F463C0E98919
:101BF000FA89E95FF94FA080B180C280D380C60125
:101C0000B50120E030E040E050E00E94EE211816DF
:101C10001CF48601750106C08601750117FB10953D
:101C200017F91095C401B30120EC31EE44E65CE4F1
:101C30000E94A3206B8B7C8B8D8B9E8BE989FA890C
:101C4000E354FC4F2080318042805380C801B701AB
:101C50002B893C894D895E890E94A320A2019101B4
:101C60000E94EE21181634F5C601B50120E030E0DF
:101C700040E050E00E94EE21181624F0D7FAD094EC
:101C8000D7F8D094C401B301A20191010E94A3200E
:101C90007B018C01C601B5012B893C894D895E8988
:101CA0000E94A3209B01AC01C801B7010E94F22150
:101CB0003B014C01E989FA893496FA8BE98B7097DC
:101CC00009F088CFC301D4018093F2059093F30506
:101CD000A093F405B093F505EE24FF24F701E45A30
:101CE000FA4F60817181828193816115710581054F
:101CF0009105C1F0870102521A4F0E943C219B01BD
:101D0000AC01C401B3010E94A32020E030E048EC04
:101D100052E40E94F2210E940B21F801608371833A
:101D20008283938384E090E0E80EF91E90E1E91647
:101D3000F104A1F680915C0590915D05A0915E058E
:101D4000B0915F0589839A83AB83BC8380916005E2
:101D500090916105A0916205B09163058D839E838A
:101D6000AF83B8878091640590916505A091660561
:101D7000B091670589879A87AB87BC878091680592
:101D800090916905A0916A05B0916B058D879E873A
:101D9000AF87B88BCE0101960E94E30266960FB61C
:101DA000F894DEBF0FBECDBFCF91DF911F910F9191
:101DB000FF90EF90DF90CF90BF90AF909F908F906B
:101DC0007F906F905F904F903F902F9008950E946A
:101DD000A11860933B0970933C0980933D0990934F
:101DE0003E0980E69BE060E072E00E946F1F08956C
:101DF0000F931F9300E61BE0C8010E94311DC8012C
:101E000063E072E00E945E1E4091FA055091FB056E
:101E10006091FC057091FD054F5F5F4F6F4F7F4FE5
:101E2000C8012AE030E00E947A1F0E94E70E1F914D
:101E30000F91089540911F095091200920E630E04C
:101E4000B901469F9001479F300D569F300D1124D8
:101E5000682F772767FD7095C901895E994F0E94A9
:101E6000F2259C0190932A098093290980E0232B75
:101E700009F081E008958091290990912A0901963D
:101E800060E070E00E9435230895AF92BF92CF9238
:101E9000DF92EF92FF920F931F93CF93DF9387E42C
:101EA0000E941A0F882309F4B5C20E943B0F0E94BA
:101EB0000B216C31710509F4CBC06D31710554F4FF
:101EC00077FD14C66230710594F06430710509F035
:101ED0000DC68BC06B35710509F480C26C35710578
:101EE00009F480C26A35710509F000C674C20E9407
:101EF0005D022EEBE22E25E0F22E0EEA15E0C0E0A8
:101F0000D0E0FE01E25DFB4F80810E941A0F882322
:101F100041F10E943B0F5B016C01FE01E45CFA4F52
:101F20008081882311F061E002C06091FE0570E0BD
:101F3000882777FD8095982F0E943E21F701208108
:101F40003181428153810E94F2219B01AC01C60183
:101F5000B5010E943B20F8016083718382839383E3
:101F60000AC0F70180819181A281B381F801808349
:101F70009183A283B383219684E090E0E80EF91E5A
:101F80000C5F1F4FC430D10509F0BBCF86E40E941F
:101F90001A0F8823E9F00E943B0F0E940B217B015E
:101FA0008C017093EF056093EE05B701882777FDEC
:101FB0008095982F0E943E2120E030E040E050E0E4
:101FC0000E94EE21181624F4F0923404E0923304B7
:101FD0000E94810B0E94A11860933B0970933C09F9
:101FE00080933D0990933E0983C580E50E941A0FB6
:101FF000882321F4AA24BB24650106C00E943B0F5C
:102000000E9410215B016C0183E50E941A0F882356
:1020100061F00E943B0F20E030E04AE754E40E9468
:10202000F2210E9410215B016C010E94A1187B012A
:102030008C01EA0CFB1C0C1D1D1D02C00E945D02E0
:102040000E94A1186E157F0580079107B8F34EC551
:1020500080913304909134049093F1058093F005BE
:102060008091BE059091BF05A091C005B091C105BA
:102070008093AE059093AF05A093B005B093B105E2
:102080008091C2059091C305A091C405B091C5058A
:102090008093B2059093B305A093B405B093B505B2
:1020A0008091C6059091C705A091C805B091C9055A
:1020B0008093B6059093B705A093B805B093B90582
:1020C0008091CA059091CB05A091CC05B091CD052A
:1020D0008093BA059093BB05A093BC05B093BD0552
:1020E000109234041092330480912E040E941A0F2F
:1020F000882371F480912F040E941A0F882341F4E1
:10210000809130040E941A0F882311F481E001C0ED
:1021100080E080933204882339F480912E040E9459
:102120001A0F882309F466C00F2EF0E0EF2EF0E0BE
:10213000FF2EF0E00F2FF0E01F2FF02DE092BE05F4
:10214000F092BF050093C0051093C10580E090E0B8
:10215000A6E9B3EC8093AE059093AF05A093B005CC
:10216000B093B1056091CD037091CE038091CF0300
:102170009091D0030E940B21709334046093330438
:102180000E94810BE092BE05F092BF050093C0054E
:102190001093C10580E090E0A0EAB0E48093AE0522
:1021A0009093AF05A093B005B093B1050E94810B49
:1021B00080E090E0A0E2B1EC8093AE059093AF0593
:1021C000A093B005B093B1050E94810BE092BE05CB
:1021D000F092BF050093C0051093C105E092AE05D3
:1021E000F092AF050093B0051093B105109234043E
:1021F0001092330480913204882339F480912F04A3
:102200000E941A0F882309F466C00F2EF0E0EF2E0B
:10221000F0E0FF2EF0E00F2FF0E01F2FF02DE09206
:10222000C205F092C3050093C4051093C50580E074
:1022300090E0A6E9B3EC8093B2059093B305A09328
:10224000B405B093B5056091D1037091D20380912C
:10225000D3039091D4030E940B21709334046093B4
:1022600033040E94810BE092C205F092C3050093F3
:10227000C4051093C50580E090E0A0EAB0E4809327
:10228000B2059093B305A093B405B093B5050E9431
:10229000810B80E090E0A0E2B1EC8093B2059093D6
:1022A000B305A093B405B093B5050E94810BE092ED
:1022B000C205F092C3050093C4051093C505E092D2
:1022C000B205F092B3050093B4051093B5051092D2
:1022D00034041092330480913204882339F48091BD
:1022E00030040E941A0F882309F462C00F2EF0E018
:1022F000EF2EF0E0FF2EF0E00F2FF0E01F2FF02D7B
:10230000E092C605F092C7050093C8051093C90571
:1023100080E090E0A6E1B3EC8093B6059093B7051A
:10232000A093B805B093B9056091D5037091D60319
:102330008091D7039091D8030E940B2170933404AD
:10234000609333040E94810BE092C605F092C705AA
:102350000093C8051093C90580E090E0A0E0B0E4C8
:102360008093B6059093B705A093B805B093B905CF
:102370000E94810B80E090E0A0E2B1EC8093B60572
:102380009093B705A093B805B093B9050E94810B4F
:10239000E092C605F092C7050093C8051093C905E1
:1023A000E092B605F092B7050093B8051093B90511
:1023B0008091F0059091F10590933404809333045B
:1023C0000E94A11860933B0970933C0980933D09DA
:1023D00090933E098BC31092FE0588C381E08093E1
:1023E000FE0584C3CEE2D4E00EEB15E088810E94A6
:1023F0001A0F882339F00E943B0FF8016083718324
:102400008283938321960C5F1F4FF4E0C233DF0772
:1024100069F76CC38DE40E941A0F882309F44DC339
:102420000E943B0F0E940B216A36710509F49CC182
:102430006B36710584F56435710509F4DBC16535CA
:102440007105ACF46135710509F4CBC162357105D4
:102450002CF46035710509F049C3C1C162357105BD
:1024600009F4C1C16335710509F040C3BFC16C35C2
:10247000710509F4F6C16D3571052CF465357105EA
:1024800009F034C3D8C168367105B1F169367105F8
:1024900009F02CC363C06737710509F47EC2683741
:1024A0007105ACF46D36710509F499C06E3671058D
:1024B0002CF46B36710509F019C386C162377105BA
:1024C00009F41AC26337710509F010C30AC26E3BE2
:1024D000710509F4D6C06F3B71052CF46C38710599
:1024E00009F004C322C0693C710509F490C26A3C3A
:1024F000710509F0FBC2B6C283E50E941A0F88235A
:1025000009F4F4C20E943B0F0E940B21DC01CB01B5
:1025100066E374E04DE350E021E030E00E94860184
:1025200090932C0980932B09E1C283E50E941A0F36
:10253000882309F4DBC20E943B0F0E940B21DC01BF
:10254000CB0166E374E04DE350E021E030E00E940F
:1025500086019093300980932F09C8C280912D097C
:1025600090912E0966E374E04DE350E021E030E005
:102570000E94E301909334098093330980913109DB
:102580009091320966E374E04DE350E021E030E0E1
:102590000E94E301909336098093350980E69BE021
:1025A0006BE072E00E945E1E609133097091340905
:1025B00080E69BE04AE050E00E94451F80E69BE0F9
:1025C00061E172E00E945E1E6091350970913609EA
:1025D00080E69BE04AE050E00E94851F89C283E5C7
:1025E0000E941A0F882391F00E943B0F0E940B213A
:1025F000DC01CB0166E374E04DE350E021E030E024
:102600000E94860190932C0980932B090E94A118A7
:102610007B018C012AC00E94A1186E197F09800BD2
:10262000910B695E734080409040E8F080E69BE04B
:1026300065E172E00E945E1E80912D0990912E0945
:1026400066E374E04DE350E021E030E00E94E301F6
:10265000BC0180E69BE04AE050E00E94851F0E949A
:10266000A1187B018C010E945D0220912D093091FF
:102670002E0980912B0990912C09281739075CF2BB
:1026800035C283E50E941A0F882391F00E943B0F08
:102690000E940B21DC01CB0166E374E04DE350E0C6
:1026A00021E030E00E9486019093300980932F0949
:1026B0000E94A1187B018C014AC00E94A1186E19CA
:1026C0007F09800B910B695E734080409040E8F178
:1026D00080912D0990912E0966E374E04DE350E05E
:1026E00021E030E00E94E3019093340980933309A4
:1026F00080E69BE065E172E00E945E1E6091330916
:102700007091340980E69BE04AE050E00E94451F4A
:1027100080E69BE061E172E00E945E1E80913109DB
:102720009091320966E374E04DE350E021E030E03F
:102730000E94E301BC0180E69BE04AE050E00E9479
:10274000851F0E94A1187B018C010E945D022091CF
:1027500031093091320980912F0990913009281761
:1027600039070CF4AACFC2C183E50E941A0F88234F
:1027700039F1809102018064809302010E943B0F35
:1027800020E030E040E050E00E949F2088231CF4CD
:1027900060E070E011C00E943B0F20E030E04FE7A6
:1027A00053E40E94EE2118161CF46FEF70E004C091
:1027B0000E943B0F0E940B2189E00E94221A96C1C1
:1027C00080910201806408C089E060E070E00E94AE
:1027D000221A809102018F7B8093020187C1269A81
:1027E00085C1269883C110923F0580C181E0809306
:1027F0003F057CC183E50E941A0F882399F00E944F
:102800003B0F20E030E04AE754E40E94F2210E94AE
:102810001021609343097093440980934509909374
:10282000460964C15F9A8A9A809108018160809309
:102830000801129A5BC183E50E941A0F0E943B0FA8
:1028400020E030E04AE754E40E94F2210E94102187
:1028500060933F0970934009809341099093420926
:1028600045C1CEE2D4E00DEA13E088810E941A0F40
:10287000882339F00E943B0FF801608371838283C3
:10288000938321960C5F1F4FF4E0C233DF0769F793
:10289000C0E0D0E08E0104591A4FFE01E752FC4F10
:1028A000DE01A355BC4F60817181828193812D919E
:1028B0003D914D915C910E94F2219B01AC0160E23F
:1028C0007CEB8EEB9CE40E94A3200E941021F80177
:1028D00060837183828393832496C031D105D1F6BE
:1028E00005C180E69BE068E172E00E945E1E80E622
:1028F0009BE069E074E0F8C080E69BE062EA72E089
:102900000E945E1E4091BE055091BF056091C005BA
:102910007091C10580E69BE022E030E00E942C200F
:1029200080E69BE065EA72E00E945E1E4091C2056F
:102930005091C3056091C4057091C50580E69BE088
:1029400022E030E00E942C2080E69BE068EA72E002
:102950000E945E1E4091C6055091C7056091C80552
:102960007091C90580E69BE022E030E00E942C20B7
:1029700080E69BE06BEA72E00E945E1E4091CA0511
:102980005091CB056091CC057091CD0580E69BE020
:1029900022E030E00E942F20A9C080E69BE06EEA92
:1029A00072E00E945E1E659903C065EB72E002C092
:1029B00068EB72E080E69BE00E945E1E80E69BE092
:1029C0006BEB72E00E945E1E8091030181FD03C0EB
:1029D00065EB72E002C068EB72E080E69BE00E946B
:1029E0005E1E80E69BE062EC72E00E945E1E4B99E8
:1029F00003C065EB72E002C068EB72E080E69BE02A
:102A00000E945E1E80E69BE069EC72E06DC09EE273
:102A1000E92E94E0F92EC0E0D0E0F70180810E9419
:102A20001A0F8823A9F00E943B0F8E0104581A4FF9
:102A3000FE01E355FC4F20813181428153810E9488
:102A4000F2210E941021F8016083718382839383B5
:102A50000894E11CF11C2496F2E3EF16F4E0FF0663
:102A6000E1F644C08EE2E82E84E0F82EC0E0D0E02B
:102A7000F70180810E941A0F8823A9F00E943B0F62
:102A80008E0104571A4FFE01E355FC4F208131811E
:102A9000428153810E94F2210E941021F80160833B
:102AA0007183828393830894E11CF11C2496F2E3E2
:102AB000EF16F4E0FF06E1F619C080E69BE06AEC51
:102AC00072E00E946F1F20911F093091200980E65B
:102AD00090E0289FB001299F700D389F700D112440
:102AE000695E794F80E69BE00E946F1F0E94E70EAF
:102AF000DF91CF911F910F91FF90EF90DF90CF90DA
:102B0000BF90AF900895DF92EF92FF920F931F93C3
:102B1000CF93DF93809123099091240903970CF4BC
:102B20006CC188C14D3051F04A3341F020912609E3
:102B3000309127092F3531050CF440C1E091260969
:102B4000F0912709309709F475C1A0912109B0913E
:102B50002209AE9DE001AF9DD00DBE9DD00D112488
:102B6000EC0FFD1FE95EF94F108280912809882340
:102B700009F01DC1A95EB64F1C928E01095E194F66
:102B8000C8016EE470E00E94F2259C01009709F4F0
:102B9000AAC090932A09809329092F5F3F4F201BD9
:102BA000310B2C0F3D1FC901895E994F60E070E029
:102BB0004AE050E00E94A3246093F6057093F70565
:102BC0008093F8059093F9052091FA053091FB0563
:102BD0004091FC055091FD052F5F3F4F4F4F5F4FD8
:102BE0006217730784079507C9F0809121099091B6
:102BF00022099C012E9DC0012F9D900D3E9D900DA0
:102C00001124895E994F6BED72E00E94FD250097BB
:102C100029F480E69BE060EE72E038C080912109E3
:102C2000909122098E9DE0018F9DD00D9E9DD00D2B
:102C30001124CE01895E994F6AE270E00E94F2256C
:102C40009C010097D1F140E010E0CE0102C01E27A8
:102C50004F5FFC01E40FF11DE95EF94FE081EA32BC
:102C6000B1F730932A0920932909C901019660E040
:102C700070E00E9435230E940B21212F30E026179F
:102C8000370701F180E69BE060E273E00E945E1E80
:102C90004091FA055091FB056091FC057091FD058E
:102CA00080E69BE02AE030E00E947A1F0E94F80E46
:102CB0001092270910922609BDC080E69BE065E4CA
:102CC00073E0E4CF8091F6059091F705A091F805A7
:102CD000B091F9058093FA059093FB05A093FC054C
:102CE000B093FD051CC0C8016AE270E00E94F225A5
:102CF0000097A9F080E69BE065E773E00E945E1E06
:102D00004091FA055091FB056091FC057091FD051D
:102D100080E69BE02AE030E00E947A1FC9CF8091D4
:102D20002109909122098E9D80018F9D100D9E9DFD
:102D3000100D1124E801C95ED94FCE0167E470E09F
:102D40000E94F2259C010097E1F090932A0980935C
:102D500029092F5F3F4F2C1B3D0B200F311FC9014D
:102D6000895E994F60E070E00E9435230E940B213C
:102D70006230710530F480E69BE060E072E00E9412
:102D80006F1F8091210990912209019668E070E0FF
:102D90000E94CB22909322098093210980912309DC
:102DA000909124090196909324098093230910920D
:102DB0002809109227091092260924C04B3311F4D8
:102DC000D0922809809128098823E1F48091210973
:102DD000909122098E9DF0018F9DF00D9E9DF00D2A
:102DE0001124E20FF31FE95EF94F40832F5F3F4F3D
:102DF000309327092093260905C030E6E32EF12CF5
:102E0000DD24D39480E69BE00E94DB1C1816190693
:102E10008CF4809123099091240908975CF480E652
:102E20009BE00E94091D482F809325098A3009F0F4
:102E300079CE84CE8091230990912409892BC1F009
:102E40000E94450F80912309909124090197909346
:102E500024098093230980911F09909120090196EC
:102E600068E070E00E94CB229093200980931F09B4
:102E70000E945D020E94A118E0903F09F090400975
:102E8000009141091091420920913B0930913C0980
:102E900040913D0950913E09621B730B840B950BC9
:102EA000E616F70608071907F8F4E114F10401051E
:102EB0001105D1F010922C0910922B092C98109228
:102EC000300910922F09809102018F7D80930201B9
:102ED0005F9A8A9A80910801816080930801129A12
:102EE0008CE060E00E9437190E94A118E09043092D
:102EF000F0904409009145091091460920913B0941
:102F000030913C0940913D0950913E09621B730B81
:102F1000840B950BE616F7060807190768F4E11409
:102F2000F1040105110541F05F9A8A9A8091080128
:102F3000816080930801129ADF91CF911F910F91C8
:102F4000FF90EF90DF900895CF92DF92EF92FF9283
:102F50000F931F93CF93DF9380E69BE040E052EC0A
:102F600061E070E00E94E21B80E69BE065EA73E0AE
:102F70000E946F1FE7E1F9E0119289E0EF31F80755
:102F8000D9F7819A879A80910A01826080930A0119
:102F90000E9A579A5F9A829A8A9A80910701816065
:102FA00080930701809108018160809308010A9A4B
:102FB000129A6D98809104018D7F8093040153983B
:102FC000249A80910101806280930101809A869AFF
:102FD00080910A01886080930A010C9AC0E0D0E0D9
:102FE000FE01E355FC4FE080F180028113816CE625
:102FF000C62E65E0D62ECC0EDD1EFE01E752FC4F3C
:10300000C801B70120813181428153810E94F221A0
:103010009B01AC0160E27CEB8EEB9CE40E94A32060
:103020000E941021F60160837183828393835CE7A1
:10303000C52E55E0D52ECC0EDD1EFE01E751FC4F0E
:1030400060817181828193810E943E21A801970154
:103050000E94F2210E941021F60160837183828315
:1030600093834CE8C42E45E0D42ECC0EDD1EFE0129
:10307000E750FC4F60817181828193810E943E21E3
:10308000A80197010E94F2210E941021F60160839D
:103090007183828393832496C031D10509F0A0CF38
:1030A000DF91CF911F910F91FF90EF90DF90CF9024
:1030B00008951F920F920FB60F9211242F933F93F2
:1030C0008F939F93AF93BF9380914B0990914C093D
:1030D000A0914D09B0914E0930914F090196A11D63
:1030E000B11D232F2D5F2D3720F02D570196A11DE7
:1030F000B11D20934F0980934B0990934C09A093E5
:103100004D09B0934E098091470990914809A091CB
:103110004909B0914A090196A11DB11D8093470943
:1031200090934809A0934909B0934A09BF91AF9180
:103130009F918F913F912F910F900FBE0F901F90F5
:1031400018958FB7F89420914B0930914C09409114
:103150004D0950914E098FBFB901CA0108959FB71B
:10316000F8942091470930914809409149095091BC
:103170004A0986B5A89B06C08F3F21F02F5F3F4FBD
:103180004F4F5F4F9FBF542F432F322F2227280FBF
:10319000311D411D511D82E0220F331F441F551F59
:1031A0008A95D1F7B901CA010895789484B58260EF
:1031B00084BD84B5816084BD85B5826085BD85B5DB
:1031C000816085BDEEE6F0E0808181608083E1E88A
:1031D000F0E01082808182608083808181608083C2
:1031E000E0E8F0E0808181608083E1EBF0E08081C5
:1031F00084608083E0EBF0E0808181608083E1E99E
:10320000F0E0808182608083808181608083E1EA58
:10321000F0E0808182608083808181608083E1E250
:10322000F1E0808182608083808181608083E0E939
:10323000F0E0808181608083E0EAF0E0808181605D
:103240008083E0E2F1E0808181608083EAE7F0E062
:1032500080818460808380818260808380818160BE
:1032600080838081806880831092C1000895482FF8
:1032700050E0CA0188589E4FFC0124914E5C5E4F7D
:10328000FA0184918823C1F0E82FF0E0EE0FFF1FD0
:10329000EC51FF4FA591B491662341F49FB7F89488
:1032A0008C91209582238C939FBF08959FB7F894AB
:1032B0008C91822B8C939FBF0895482F50E0CA01B8
:1032C00082549E4FFC012491CA0188589E4FFC01F4
:1032D00034914E5C5E4FFA019491992309F47DC0BC
:1032E000222309F462C0233021F4809180008F777B
:1032F00005C0243031F4809180008F7D8093800060
:1033000054C0213019F484B58F7704C0223021F4E1
:1033100084B58F7D84BD49C0263021F48091B000F2
:103320008F7705C0273031F48091B0008F7D809376
:10333000B0003BC0283021F4809190008F7705C009
:10334000293031F4809190008F7D809390002DC0C2
:103350002A3021F480919000877FF7CF2B3021F421
:103360008091A0008F770BC02C3021F48091A000B9
:103370008F7D05C02D3031F48091A000877F809330
:10338000A00013C02E3021F4809120018F770BC054
:103390002F3021F4809120018F7D05C0203129F448
:1033A00080912001877F80932001E92FF0E0EE0FCC
:1033B000FF1FE250FF4FA591B491662341F49FB7E0
:1033C000F8948C91309583238C939FBF08959FB779
:1033D000F8948C91832B8C939FBF0895382F86335C
:1033E00008F0365320917B00832F8695869586952D
:1033F00090E08170907043E0880F991F4A95E1F743
:10340000277F282B20937B0037708091350482958D
:10341000880F880F807C832B80937C0080917A00BA
:10342000806480937A0080917A0086FDFCCF2091A1
:10343000780040917900942F80E030E0282B392BE0
:10344000C90108951F93CF93DF93182FEB0161E01B
:103450000E943719E12FF0E0E254FE4F849183304F
:1034600051F480918000806880938000D09389001F
:10347000C09388009FC0843051F4809180008062A6
:1034800080938000D0938B00C0938A0093C08130DA
:1034900041F4209709F487C084B5806884BDC7BD16
:1034A00089C0823041F4209709F47DC084B58062E0
:1034B00084BDC8BD7FC0863041F48091B000806873
:1034C0008093B000C093B30075C0873041F4809101
:1034D000B00080628093B000C093B4006BC08830AD
:1034E00051F480919000806880939000D09399006F
:1034F000C09398005FC0893051F480919000806241
:1035000080939000D0939B00C0939A0053C08A3060
:1035100051F480919000886080939000D0939D003A
:10352000C0939C0047C08B3051F48091A00080680C
:103530008093A000D093A900C093A8003BC08491C1
:103540008C3051F48091A00080628093A000D093D1
:10355000AB00C093AA002EC08D3051F48091A00022
:1035600088608093A000D093AD00C093AC0022C0CF
:103570008E3051F480912001806880932001D09397
:103580002901C093280116C08F3051F48091200189
:10359000806280932001D0932B01C0932A010AC03E
:1035A000C038D1051CF4812F60E002C0812F61E09A
:1035B0000E945D19DF91CF911F9108951F920F9284
:1035C0000FB60F920BB60F9211242F933F934F9388
:1035D0005F936F937F938F939F93AF93BF93EF937B
:1035E000FF934091C600E091D009F091D109CF013D
:1035F000019660E870E00E94CB229C018091D20984
:103600009091D3092817390739F0E05BF64F4083D2
:103610003093D1092093D009FF91EF91BF91AF91E1
:103620009F918F917F916F915F914F913F912F91DA
:103630000F900BBE0F900FBE0F901F9018951F920A
:103640000F920FB60F920BB60F9211242F933F9348
:103650004F935F936F937F938F939F93AF93BF939A
:10366000EF93FF934091CE00E091540AF091550AF8
:10367000CF01019660E870E00E94CB229C0180910E
:10368000560A9091570A2817390739F0EC52F64F2D
:1036900040833093550A2093540AFF91EF91BF91D4
:1036A000AF919F918F917F916F915F914F913F91DA
:1036B0002F910F900BBE0F900FBE0F901F9018957B
:1036C0001F920F920FB60F920BB60F9211242F93E9
:1036D0003F934F935F936F937F938F939F93AF939A
:1036E000BF93EF93FF934091D600E091D80AF091F9
:1036F000D90ACF01019660E870E00E94CB229C01BC
:103700008091DA0A9091DB0A2817390739F0E85AD4
:10371000F54F40833093D90A2093D80AFF91EF9157
:10372000BF91AF919F918F917F916F915F914F91D9
:103730003F912F910F900BBE0F900FBE0F901F90D7
:1037400018951F920F920FB60F920BB60F9211247D
:103750002F933F934F935F936F937F938F939F9399
:10376000AF93BF93EF93FF9340913601E0915C0BD1
:10377000F0915D0BCF01019660E870E00E94CB22D2
:103780009C0180915E0B90915F0B2817390739F0EF
:10379000E452F54F408330935D0B20935C0BFF9117
:1037A000EF91BF91AF919F918F917F916F915F91B9
:1037B0004F913F912F910F900BBE0F900FBE0F9026
:1037C0001F9018955F926F927F928F929F92AF9207
:1037D000BF92CF92DF92EF92FF920F931F93CF93FE
:1037E000DF93EC013A014B01413482E458078FE04A
:1037F000680780E078070CF07FC060E874E88EE12D
:1038000090E0A40193010E940023215030404040E9
:103810005040CA01B90122E030E040E050E00E948F
:10382000002359016A01A601950120953095409524
:10383000509594E0220F331F441F551F9A95D1F7DE
:1038400060E074E284EF90E00E940023CA01B901B5
:103850002FEF30E040E050E00E94AC22A401930141
:103860000E940023C90181509F4F181619061CF4AD
:10387000522E5A9403C055245394521A60E079E0B2
:103880008DE390E0A40193010E9400232150304079
:1038900040405040CA01B90122E030E040E050E031
:1038A0000E940023209530954095509583E0220F8B
:1038B000331F441F551F8A95D1F760E074E284EFEF
:1038C00090E00E940023CA01B9012FEF30E040E0F0
:1038D00050E00E94AC22A40193010E940023C90180
:1038E00081509F4F181619061CF4822F815002C078
:1038F00081E0821B851500F5E885F98581E090E07F
:103900000A8802C0880F991F0A94E2F7808360E05A
:1039100079E08DE390E0A40193010E9400232150FF
:10392000304040405040CA01B90122E030E040E060
:1039300050E00E94002304C0E885F98510829501BB
:10394000EC81FD813083EE81FF812083EA85FB8558
:10395000208141E050E0CA010E8402C0880F991F07
:103960000A94E2F7282B2083EA85FB852081CA018F
:103970000F8402C0880F991F0A94E2F7282B208336
:10398000EA85FB858081088802C0440F551F0A9490
:10399000E2F7842B8083DF91CF911F910F91FF90ED
:1039A000EF90DF90CF90BF90AF909F908F907F90DF
:1039B0006F905F900895DC011296ED91FC91139742
:1039C000E058FF4F8191919180589F4F2081318124
:1039D000821B930B60E870E00E94CB220895DC010B
:1039E0001296ED91FC911397EE57FF4F2081318194
:1039F00092918291E058F0408217930719F42FEFCB
:103A00003FEF05C0E20FF31F8081282F30E0C9018E
:103A10000895CF93DF93DC011296ED91FC911397FB
:103A2000EF01CE57DF4F48815981E058FF4F808129
:103A30009181E058F0408417950719F42FEF3FEF7C
:103A40000CC0E40FF51F2081CA01019660E870E008
:103A50000E94CB229983888330E0C901DF91CF9106
:103A60000895DC011296ED91FC911397EE57FF4FEC
:103A700080819181929382930895FC01A085B18504
:103A800021898C9190E0022E02C0959587950A9429
:103A9000E2F780FFF6CF0484F585E02D608308957A
:103AA0002EE235E03093610B2093600B80E599E0C6
:103AB0009093630B8093620B85EC90E09093650B81
:103AC0008093640B84EC90E09093670B8093660B7B
:103AD00080EC90E09093690B8093680B81EC90E010
:103AE00090936B0B80936A0B86EC90E090936D0B38
:103AF00080936C0BE4E0E0936E0B73E070936F0BBC
:103B000067E06093700B55E05093710B41E0409378
:103B1000720B3093740B2093730B84ED99E09093A8
:103B2000760B8093750B8DEC90E09093780B8093DF
:103B3000770B8CEC90E090937A0B8093790B88EC68
:103B400090E090937C0B80937B0B89EC90E09093BA
:103B50007E0B80937D0B8EEC90E09093800B809396
:103B60007F0BE093810B7093820B6093830B5093D8
:103B7000840B4093850B3093870B2093860B88E54D
:103B80009AE09093890B8093880B85ED90E0909359
:103B90008B0B80938A0B84ED90E090938D0B809338
:103BA0008C0B80ED90E090938F0B80938E0B81EDCA
:103BB00090E09093910B8093900B86ED90E0909322
:103BC000930B8093920BE093940B7093950B6093FF
:103BD000960B5093970B4093980B30939A0B20932E
:103BE000990B8CED9AE090939C0B80939B0B85E353
:103BF00091E090939E0B80939D0B84E391E09093D2
:103C0000A00B80939F0B80E391E09093A20B809395
:103C1000A10B81E391E09093A40B8093A30B86E327
:103C200091E09093A60B8093A50BE093A70B709364
:103C3000A80B6093A90B5093AA0B4093AB0B08956C
:103C40000E94D5180E94A4170E948315FDCF0F93E0
:103C50001F93CF93DF938C01EB0109C02196D8010C
:103C6000ED91FC910190F081E02DC80119956881DA
:103C70006623A1F7DF91CF911F910F910895EF92E5
:103C8000FF920F931F93CF93DF938C017B01EA0187
:103C90000CC0D7016D917D01D801ED91FC9101908F
:103CA000F081E02DC80119952197209791F7DF91B8
:103CB000CF911F910F91FF90EF900895DC01ED914E
:103CC000FC910280F381E02D199508952F923F9287
:103CD0004F925F926F927F928F929F92AF92BF921C
:103CE000CF92DF92EF92FF920F931F93DF93CF93C8
:103CF000CDB7DEB7A0970FB6F894DEBF0FBECDBF2D
:103D00001C016A017B01411551056105710549F4EA
:103D100040E350E060E070E020E030E00E940F1FE0
:103D200056C0882499245401422E552466247724B1
:103D300001E010E00C0F1D1F080D191DC701B60191
:103D4000A30192010E94DE22F80160830894811C85
:103D5000911CA11CB11CC701B601A30192010E94D4
:103D6000DE22C901DA016C017D01C114D104E10434
:103D7000F104F1F681E0E82EF12CEC0EFD1EE80CCA
:103D8000F91C3E010894611C711CD501C401019706
:103D9000A109B1096C01C818D90816C0F601EE0DC9
:103DA000FF1D40814A3010F4405D01C0495C552739
:103DB00047FD5095652F752FC10120E030E00E942E
:103DC0000F1F0894E108F1086E147F0439F7A096DC
:103DD0000FB6F894DEBF0FBECDBFCF91DF911F911C
:103DE0000F91FF90EF90DF90CF90BF90AF909F909A
:103DF0008F907F906F905F904F903F902F9008959D
:103E0000DC012115310541F4ED91FC910190F08127
:103E1000E02D642F199508950E94661E0895EF9273
:103E2000FF920F931F93CF93DF93EC017A018B01E5
:103E30002115310541F4E881F9810190F081E02DEF
:103E4000642F19951BC02A303105B1F477FF10C0DB
:103E50004DE250E060E070E020E030E00E940F1F93
:103E600010950095F094E094E11CF11C011D111DCA
:103E7000CE01B801A7012AE00E94661EDF91CF9112
:103E80001F910F91FF90EF900895EF92FF920F9383
:103E90001F937B019A010027F7FC0095102FB801B2
:103EA000A7010E940F1F1F910F91FF90EF9008959F
:103EB0000F931F938C014DE050E060E070E020E034
:103EC00030E00E940F1FC8014AE050E060E070E05F
:103ED00020E030E00E940F1F1F910F9108950F9373
:103EE0001F938C010E945E1EC8010E94581F1F91E3
:103EF0000F9108950F931F938C010E940F1FC8010B
:103F00000E94581F1F910F910895CF92DF92EF9258
:103F1000FF920F931F938C016B019A01EE24D7FC43
:103F2000E094FE2CB701A6010E940F1FC8010E9459
:103F3000581F1F910F91FF90EF90DF90CF90089541
:103F40009F92AF92BF92CF92DF92EF92FF920F9328
:103F50001F93CF93DF93EC017A018B01922ECB015B
:103F6000BA0120E030E040E050E00E949F2088232A
:103F70006CF4CE014DE250E060E070E020E030E013
:103F80000E940F1F17FB109517F9109520E030E0E5
:103F900040E05FE3AA240BC0CA01B90120E030E091
:103FA00040E251E40E94A3209B01AC01A394A91418
:103FB00098F3C801B7010E943B205B016C010E948D
:103FC00010217B018C01CE01B801A7012AE030E06D
:103FD0000E94001F992029F0CE016BEA73E00E9435
:103FE0005E1EC801B7010E943C219B01AC01C601C5
:103FF000B5010E943A2022C020E030E040E251E4C6
:104000000E94F2217B018C010E940B215B016C015B
:10401000CC24B7FCC094DC2CCE01B601A5012AE06B
:1040200030E00E940F1FC601B5010E943E219B0196
:10403000AC01C801B7010E943A209A949920E1F698
:10404000DF91CF911F910F91FF90EF90DF90CF9074
:10405000BF90AF909F9008950E94A01F08950F9366
:104060001F938C010E94A01FC8010E94581F1F911E
:104070000F9108955058BB27AA270ED075C166D15D
:1040800030F06BD120F031F49F3F11F41EF45BC18E
:104090000EF4E095E7FB51C1E92F77D180F3BA1711
:1040A000620773078407950718F071F49EF58FC1B6
:1040B0000EF4E0950B2EBA2FA02D0B01B901900143
:1040C0000C01CA01A0011124FF27591B99F0593F87
:1040D00050F4503E68F11A16F040A22F232F342FCF
:1040E0004427585FF3CF469537952795A795F0401D
:1040F0005395C9F77EF41F16BA0B620B730B840B32
:10410000BAF09150A1F0FF0FBB1F661F771F881FE9
:10411000C2F70EC0BA0F621F731F841F48F4879541
:1041200077956795B795F7959E3F08F0B3CF939530
:10413000880F08F09927EE0F979587950895D9D0A5
:1041400008F481E008950CD00FC107D140F0FED0F3
:1041500030F021F45F3F19F0F0C0511139C1F3C0C4
:1041600014D198F39923C9F35523B1F3951B550B3B
:10417000BB27AA2762177307840738F09F5F5F4F3A
:10418000220F331F441FAA1FA9F333D00E2E3AF07B
:10419000E0E830D091505040E695001CCAF729D095
:1041A000FE2F27D0660F771F881FBB1F26173707E4
:1041B0004807AB07B0E809F0BB0B802DBF01FF2714
:1041C00093585F4F2AF09E3F510568F0B6C000C17A
:1041D0005F3FECF3983EDCF3869577956795B7954E
:1041E000F7959F5FC9F7880F911D9695879597F969
:1041F0000895E1E0660F771F881FBB1F62177307E2
:104200008407BA0720F0621B730B840BBA0BEE1FF6
:1042100088F7E095089504D06894B111D9C0089545
:10422000BCD088F09F5790F0B92F9927B751A0F0D4
:10423000D1F0660F771F881F991F1AF0BA95C9F73A
:1042400012C0B13081F0C3D0B1E00895C0C0672F73
:10425000782F8827B85F39F0B93FCCF386957795EA
:104260006795B395D9F73EF49095809570956195D3
:104270007F4F8F4F9F4F0895E89409C097FB3EF4FE
:1042800090958095709561957F4F8F4F9F4F9923A3
:10429000A9F0F92F96E9BB279395F6958795779521
:1042A0006795B795F111F8CFFAF4BB0F11F460FFE1
:1042B0001BC06F5F7F4F8F4F9F4F16C0882311F039
:1042C00096E911C0772321F09EE8872F762F05C04D
:1042D000662371F096E8862F70E060E02AF09A95E8
:1042E000660F771F881FDAF7880F9695879597F9DD
:1042F0000895990F0008550FAA0BE0E8FEEF161677
:104300001706E807F907C0F012161306E407F507C9
:1043100098F0621B730B840B950B39F40A2661F03D
:10432000232B242B252B21F408950A2609F4A140E0
:10433000A6958FEF811D811D089597F99F6780E8ED
:1043400070E060E008959FEF80EC089500240A94E7
:104350001616170618060906089500240A94121660
:104360001306140605060895092E0394000C11F493
:10437000882352F0BB0F40F4BF2B11F460FF04C040
:104380006F5F7F4F8F4F9F4F089557FD9058440F99
:10439000551F59F05F3F71F04795880F97FB991FA4
:1043A00061F09F3F79F08795089512161306140661
:1043B000551FF2CF4695F1DF08C0161617061806EE
:1043C000991FF1CF86957105610508940895E894C9
:1043D000BB2766277727CB0197F908958ADF08F472
:1043E0008FEF08950BD0C0CFB1DF28F0B6DF18F003
:1043F000952309F0A2CFA7CF1124EACFC6DFA0F3FF
:10440000959FD1F3950F50E0551F629FF001729F69
:10441000BB27F00DB11D639FAA27F00DB11DAA1F88
:10442000649F6627B00DA11D661F829F2227B00DD5
:10443000A11D621F739FB00DA11D621F839FA00D60
:10444000611D221F749F3327A00D611D231F849FB0
:10445000600D211D822F762F6A2F11249F57504007
:104460008AF0E1F088234AF0EE0FFF1FBB1F661FA2
:10447000771F881F91505040A9F79E3F510570F05B
:104480005CCFA6CF5F3FECF3983EDCF38695779543
:104490006795B795F795E7959F5FC1F7FE2B880F56
:1044A000911D9695879597F9089511F40EF44BCFC9
:1044B0003EC073DFD0F39923D9F3CEF39F57550B4A
:1044C00087FF43D00024A0E640EA9001805856952B
:1044D000979528F4805C660F771F881F20F02617B9
:1044E0003707480730F4621B730B840B20293129EE
:1044F0004A2BA69517940794202531254A2758F76B
:10450000660F771F881F20F026173707480730F4FB
:10451000620B730B840B200D311D411DA09581F79B
:10452000B901842F9158880F9695879508959F3FDC
:1045300031F0915020F4879577956795B795880F5E
:10454000911D9695879597F9089591505040660F63
:10455000771F881FD2F70895629FD001739FF001E3
:10456000829FE00DF11D649FE00DF11D929FF00D03
:10457000839FF00D749FF00D659FF00D9927729F3A
:10458000B00DE11DF91F639FB00DE11DF91FBD01C5
:10459000CF011124089597FB092E07260AD077FD35
:1045A00004D049D006D000201AF4709561957F4F51
:1045B0000895F6F7909581959F4F0895A1E21A2EE0
:1045C000AA1BBB1BFD010DC0AA1FBB1FEE1FFF1FB7
:1045D000A217B307E407F50720F0A21BB30BE40B07
:1045E000F50B661F771F881F991F1A9469F760954E
:1045F0007095809590959B01AC01BD01CF01089508
:1046000097FB092E05260ED057FD04D0D7DF0AD020
:10461000001C38F450954095309521953F4F4F4FF1
:104620005F4F0895F6F790958095709561957F4F4F
:104630008F4F9F4F0895AA1BBB1B51E107C0AA1FB4
:10464000BB1FA617B70710F0A61BB70B881F991F33
:104650005A95A9F780959095BC01CD010895EE0F6C
:10466000FF1F0590F491E02D19948F929F92AF92C5
:10467000BF92CF92DF92EF92FF920F931F93CF934F
:10468000DF93EC015B016115710519F0FB0191836A
:104690008083F9908F2D90E00E94D225892BC9F755
:1046A000FDE2FF1621F4F990EE24E39405C02BE21D
:1046B000F21609F4F990EE248E0101501040C80161
:1046C00064E072E043E050E00E94DA25892B01F5B6
:1046D0008E010E5F1F4FC80167E072E045E050E0B9
:1046E0000E94DA25892B19F48E01095F1F4FA1144E
:1046F000B10419F0F50111830083E0FC04C070E0FF
:1047000090E080E814C070E090E080E86FEF08C1AE
:10471000C8016CE072E043E050E00E94DA25892B8A
:1047200069F4A114B10429F470E090E080EC6FE723
:10473000F7C02296F501D183C083F6CF882499244F
:1047400040E050E060E070E0EF2DE053EA30A0F58B
:10475000F2E0EF2A8E2D90E09C0128703070E2FE8E
:1047600006C0232B79F50894811C911C2BC0232BA8
:1047700019F0089481089108DB01CA0112E0880F42
:10478000991FAA1FBB1F1A95D1F7480F591F6A1FFF
:104790007B1F440F551F661F771F4E0F511D611D54
:1047A000711D483929E9520729E9620729E1720791
:1047B00048F084E0E82A06C0EE3F31F4E3FC39C05B
:1047C00098E0E92AF990C0CFE53311F0E53189F599
:1047D00029912D3219F4E0E1EE2A05C02B3219F0AF
:1047E00081E090E003C0299182E090E0E22FE05365
:1047F000EA3018F0C81BD90B1CC020E030E0FCE008
:1048000020383F075CF4C901880F991F880F991F52
:10481000280F391F220F331F2E0F311DE991E0534E
:10482000EA3068F3E4FE03C0309521953F4F820ED5
:10483000931ECE2CDD24E1FE07C0A114B10421F0AB
:104840002197F501D183C083CB01BA010E943C219D
:104850007B018C01F3E0CF22DD2423E0C216D104DA
:1048600021F417FB109517F9109557016801C8013D
:10487000B70120E030E040E050E00E949F20882314
:1048800009F44AC097FE0DC023E2E22E22E0F22E88
:104890009094819491089394C0E2D0E000E010E0FD
:1048A00012C09BE3E92E92E0F92EF6CFF701259195
:1048B000359145915491C601B5010E94F2215B01E9
:1048C0006C018C1A9D0A8C169D0684F7D595C795A8
:1048D0000F5F1F4F0630110529F08CEF9FEFE80E98
:1048E000F91EF1CFC501D6017C018D018C2D880FF9
:1048F0008D2D881F8F3F51F0C601B50120E030E0BB
:1049000040E050E00E949F20882331F482E290E052
:104910009093AD0B8093AC0B7E2D9F2D802F612F3C
:10492000272F392F482F562FB901CA01DF91CF9178
:104930001F910F91FF90EF90DF90CF90BF90AF90BD
:104940009F908F9008952F923F925F926F927F92E7
:104950008F929F92AF92BF92CF92DF92EF92FF928F
:104960000F931F93CF93DF938C011B01EA01611515
:10497000710519F0FB0191838083209749F0CE01E6
:104980000297839728F020E030E040E050E0F6C046
:10499000F801A1908F018A2D90E00E94D225892BE9
:1049A000B9F7FDE2AF1631F4F801A1908F0155245B
:1049B000539407C0FBE2AF1619F4F801A1908F01E0
:1049C0005524209719F0C031D105C1F4F0E3AF169A
:1049D00079F4F8018081883711F0883549F4F801BD
:1049E000A1800E5F1F4FF2E05F2AC0E1D0E006C059
:1049F000209721F480E3A816E9F427C0C830D10538
:104A000031F1C930D10524F4C230D10531F50CC0E3
:104A1000CA30D10589F0C031D105F9F4C12CD12CAF
:104A2000E12CB8E0FB2E28C0C12CD12CE12CA0E455
:104A3000FA2E22C0CAE0D0E0FCECCF2EFCECDF2E38
:104A4000FCECEF2EFCE0FF2E17C0C8E0D0E0C12C3C
:104A5000D12CE12CE0E1FE2E0FC09E01442737FD52
:104A60004095542F60E070E080E090E80E94DE22E4
:104A7000C901DA016C017D0120E030E040E050E046
:104A800060E03E01882477FC8094982C70EDB72E6E
:104A9000BA0CE9E0EB1570F48A2D81548A3118F4D0
:104AA00099ECB92E06C08A2D81568A3150F589EAD3
:104AB000B82EBA0C8B2D90E08C179D0714F56F3F24
:104AC000E1F0C216D306E406F506B0F0CA01B9015A
:104AD000A40193010E94AC229B01AC012B0D311D5E
:104AE000411D511D2130F0E03F07F0E04F07F0E895
:104AF0005F0710F461E001C06FEFF801A1908F0132
:104B0000C5CF2114310481F0662331F001501040EB
:104B1000F1011183008308C051FE1AC002501040F9
:104B2000F1011183008314C067FF12C050FC05C05F
:104B30002FEF3FEF4FEF5FE704C020E030E040E0B1
:104B400050E882E290E09093AD0B8093AC0B16C0DE
:104B500050FE08C050954095309521953F4F4F4FDE
:104B60005F4F0CC057FF0AC082E290E09093AD0BFC
:104B70008093AC0B2FEF3FEF4FEF5FE7B901CA0116
:104B8000DF91CF911F910F91FF90EF90DF90CF9029
:104B9000BF90AF909F908F907F906F905F903F906D
:104BA0002F900895911143C0803219F0895085509B
:104BB000D0F70895FB01DC014150504088F08D9101
:104BC00081341CF08B350CF4805E659161341CF0EF
:104BD0006B350CF4605E861B611171F3990B0895BF
:104BE000881BFCCFFC018191861721F08823D9F71F
:104BF000992708953197CF010895FB0151915523CD
:104C0000A9F0BF01DC014D9145174111E1F759F4BD
:104C1000CD010190002049F04D9140154111C9F39B
:104C2000FB014111EFCF81E090E0019708959927B2
:084C300088270895F894FFCFD6
:104C38006F6B00526573656E643A006F6B20543A6F
:104C48000020423A00543A004649524D57415245D5
:104C58005F4E414D453A537072696E7465722046D5
:104C680049524D574152455F55524C3A68747470D9
:104C7800252533412F6769746875622E636F6D2F20
:104C88006B6C696D656E742F537072696E746572A2
:104C98002F2050524F544F434F4C5F564552534963
:104CA8004F4E3A312E30204D414348494E455F54CE
:104CB8005950453A4D656E64656C204558545255B7
:104CC8004445525F434F554E543A31205555494457
:104CD8003A00583A00593A005A3A00453A00785F83
:104CE8006D696E3A004C2000482000795F6D696E4E
:104CF8003A007A5F6D696E3A0000556E6B6E6F7799
:104D08006E20636F6D6D616E643A004D3131300015
:104D180053657269616C204572726F723A204C69F2
:104D28006E65204E756D626572206973206E6F74B2
:104D3800204C617374204C696E65204E756D6265F8
:104D4800722B312C204C617374204C696E653A00CB
:104D58004572726F723A20636865636B73756D2074
:104D68006D69736D617463682C204C617374204C99
:104D7800696E653A004572726F723A204E6F204331
:104D88006865636B73756D2077697468206C696EEC
:104D980065206E756D6265722C204C617374204CB1
:104DA800696E653A004572726F723A204E6F204CF8
:104DB800696E65204E756D6265722077697468202A
:104DC800636865636B73756D2C204C617374204C3C
:104DD800696E653A007374617274002E000000A059
:104DE800420000A0420000204500002F440050432C
:104DF8004800504348000070430024F4480080BB3A
:104E0800440080BB440000F0420000A0410000A024
:104E180041CDCC4C3E0000204164000000640000FD
:104E2800003200000010270000F4010000F4010027
:104E38000032000000F401000030303030303030F3
:104E4800302D303030302D303030302D3030303063
:104E58002D3030303030303030303030300058592C
:104E68005A4501DC050117002C01190027011B0018
:104E780022011C001D011F0018012100130123003D
:104E88000E0126000901290004012C00FF00300052
:104E9800FA003400F5003800F0003D00EB00420055
:104EA800E6004700E1004E00DC005400D7005C003B
:104EB800D2006400CD006D00C8007800C3008300F4
:104EC800BE008F00B9009C00B400AB00AF00BB006F
:104ED800AA00CD00A500E000A000F5009B000C0191
:104EE80096002501910040018C005C0187007B0140
:104EF80082009B017D00BD017800E001730004027F
:104F08006E00290269004F02640074025F00990272
:104F18005A00BE025500E102500002034B00210373
:104F280046003E03410059033C00710337008703E4
:104F380032009A032D00AB032800BA032300C603EE
:104F48001E00D1031900D9031400E1030F00E70381
:104F58000A00EC030500F0030000000000003D1DFE
:0C4F6800271E3F1EDB1C091D311DEF1C25
:00000001FF
